:4000000000400020110000000D1400000D14000008B501F0FDF9C04608B512222A4B1A6001F0E8FE294801F0E3FC302001F0EEFD274A8023DB051360BC218901254B196088
:40004000254B26491960D02040022549086025491960E82040012449086024491960802080002349086023491960CF200002224908602249196082210906214B196080217C
:40008000C902204B196042211F4B196002311F4B196003391E4B196001391E4B196003311D4B19601D491E4B19601E4B13601E4A1E4B1A601D4B1A681B4B1A42FAD10222DC
:4000C000FF321A4B1A6008BD30001040001BB7000C020B40080301400000014042FF00801003014044FF00800403014041FF00800003014040FF00800C03014043FF0080FE
:4001000008010B4000010B402801014014010140100101400C01014008010140FFFF200008020B40050500400808000010020B4038B572B60122404B1A70002410E03F4863
:4001400063001A195200821891881B195B001A5AC31858880004104301F0C2F90134E4B2012CECD93549081C0C30343101F09EF9F0221205324B1A60F0221202314B1A605F
:40018000314A324B1A609922314B1A605532314B1A605E3A304B1A6099231B042F4A13602F4A13602F4A136003242F4B1C6001222E4B1A602E4A1078022302210143117033
:4001C0002C4D29783C20814328380143297010781621014311702849284A1160042228490A6028482849086028490A60284A13602849294A1160294A1360294A1360294913
:40020000294A1160294A1360294A146029492A4A11602A4A13603021294A1160294A1360294A13600633294A1360294A1360FFF7F3FE01F06BF938BD1C700F401C29000078
:400240000000024000020240FFEE00000003024000040240000502400006024000500F4020500F4030500F402000104000800F4000700F4001700F400900040008000440AD
:400280000002044009020000080204401802044000030440B1ED240008030440180304400004044031601B00080404401804044000050440246C0000080504400006044072
:4002C000080604401806044000070440080704400C07044010B5064C2378002B07D1054B002B02D0044800E000BF0123237010BDE0000020000000005C27000008B5084B51
:40030000002B03D00748084900E000BF07480368002B00D108BD064B002BFBD09847F9E7000000005C270000E4000020C800002000000000054A80235B0011680B43136009
:40034000034B1A68034B1A607047C04674040020CC0F2440C00F244038B5284A136801331360274A102311680B431360002441E0251CA3001B199B00224AD3185B7A012B6F
:4003800036D1111CA3001A1992005258013A1B199B005A50002A2BD1A3001B199B00CB181A7A002A06D1A3001B199B00CB18DB68984705E001239340114A11680B4313604B
:4003C000AB005B199B000F4AD3181A6901321A615A68002A05D0AB005D19AD00094BEA5006E0AB005D19AD00064B5D1900236B720134E4B2042CBBD938BDC046FC00002090
:4004000074040020F403002070B52F4B5A6801325A601B7A642B07D100222B4B1A722B4A202311680B431360274A137A01331372264A082311680B431360002441E0251C9B
:40044000A3001B199B00224AD3185B7A012B36D1111CA3001A1992005258013A1B199B005A50002A2BD1A3001B199B00CB181A7A002A09D1A60033199B00CE18F3689847F8
:4004800033690133336105E0012393400F4A11680B431360AB005B199B000D4AD3185A68002A05D0AB005D19AD00094BEA5006E0AB005D19AD00064B5D1900236B720134A0
:4004C000E4B2042CBBD970BDFC000020740400203801002008B5012001F07CFA08BDC04608B5002001F0AEFE08BDC04608B5054A802311680B43136001F082FE01F046FE84
:4005000008BDC0467404002008B58020C00001F0F5FC092001F09AFA034801F0CDFC034AD3680133D36008BD01010100FC00002008B501F033FF074B1870074B1B7898425A
:4005400007D0064A8023DB0011680B431360024B187008BD9C010020D804002074040020044B054A1360054A1360054A054B1A607047C0469003002078030020780400201E
:40058000A00100206C04002038B50D4B1D680D4B1B689D4212D0ED1A094A1360002407E0074A1368591C1160187801F099F90134AC42F5DB034B1A68014B1A6038BDC04663
:4005C000780400207803002008B50D4B1B680D4A12689B1A502B01DDFFF7D6FF084B1A68511C19600D2111701A68511C19600A2111701B6800221A70FFF7C6FF08BDC0464F
:40060000780400207803002010B5041C0E4B1B680E4A12689B1A502B01DDFFF7B5FF0A2C08D1094A1368591C11600A221A70FFF7ABFF07E0044B1A68511C196014701B687A
:4006400000221A7010BDC046780400207803002070B5061C00251CE0124B1B68124A12689B1A502B01DDFFF78FFF23780A2B09D10C4A1368591C11600A221A700135FFF7D1
:4006800083FF06E0074A1368591C1160013522781A7074192378002BDED1024B1B6800221A7070BD780400207803002008B50348FFF7CEFFFFF788FF002008BDB8270000D8
:4006C00008B5082001F00CF9202001F009F9082001F006F908BDC046F0B54F464646C0B489B081460F1C141C98466B46404A23CA23C3191C13680B6013790B714B46622B47
:400700001ED1772F03D0622F03D1072602E00F2600E00326351C10E0072D02DCE3B2281C03E0281C08382212D3B20341012018403030C0B2FFF768FF013D002DECDA00E056
:4007400000264B46782B27D16C2F00D10726772F00D10326622F00D10126002719E0B300221C1A41131C0F2213404246012A0BD1002B03D1012F01D0002E09D16A46D05CD3
:40078000FFF742FF012703E06A46D05CFFF73CFF013E002EE3DA00E000274B46642B22D10EE0201C0A2101F09FFF0E1C201C0A2101F0B4FE041C303605AB5E55013500E08F
:4007C0000025092DEDDD09240BE005AB185D302803D1012F01D0002C02D1FFF715FF0127013C002CF1DA09B00CBC90469946F0BDC027000070B51548FFF72AFF002520E075
:400800002E1CEB00124AD3185B68002B17D0642077212A1C0123FFF75FFF0E48FFF718FF002407E0F3001B19094A985CFFF7ECFE0134E4B2032CF5D90748FFF709FF013586
:40084000EDB2092DDCD9002070BDC046D42700007C040020E82700006C28000070B584B0061C00240DE0301C0A2101F03DFF0D1C301C0A2101F052FE061C303501AB1D55A7
:400880000134092CEFDD0B49002009230BE001AAD25C302A03D1012801D0002B02D10A7001310120013B002BF1DA00230B70014804B070BD5804002010B5002302E0CC5C43
:4008C000C4540133541E9C42F9DA10BD30B5002303E0541E9C4206D00133C45CCD5CAC42F7D0601B00E0002030BDC04610B5041C002202E08B4205D00132A0180378002BEF
:40090000F8D1002010BDC04610B5041E092C03DC1448FFF79DFE1DE0632803DC1248FFF797FE17E0114B984203DC1148FFF790FE10E0104B984203DC0F48FFF789FE09E01D
:400940000E4B984203DC0E48FFF782FE02E00C48FFF77EFE64207721221C0123FFF7BCFE10BDC046EC270000C0280000E7030000E82700000F270000F42700009F86010085
:40098000F0270000F8B54548FFF762FE4448FFF75FFE4448FFF75CFE002436E0A3001B199B00414AD3185B7A012B2CD164207721221CFFF791FE3D48FFF74AFE3A4FA500E5
:4009C0002E19B600BE19727A642077210123FFF783FE3648FFF73CFE327A782062210023FFF77AFE3248FFF733FE2B199B00D859FFF78AFF7068FFF787FF3069FFF784FFE4
:400A00002C48FFF725FE0134E4B2032CC6D92A48FFF71EFE00243CE0A3001B199B00274AD3185B7A012B32D164207721221CFFF753FE2348FFF70CFE204FA5002E19B600DD
:400A4000BE19727A642077210123FFF745FE1C48FFF7FEFD327A782062210023FFF73CFE1748FFF7F5FD2B199B00D859FFF74CFF1348FFF7EDFD7068FFF746FF1048FFF797
:400A8000E7FD3069FFF740FF0A48FFF7E1FD0134E4B2032CC0D90020F8BDC046F82700000C28000020280000F4030020C0280000F42700006C2800004828000038010020DE
:400AC000EC27000010B5041C64207721221C0123FFF702FE092C03DC0648FFF7B9FD08E0632C03DC0448FFF7B3FD02E00348FFF7AFFD10BDC0280000E8270000F427000086
:400B000070B51448FFF7A4FD1348FFF7A1FD00241BE02301114A9B5C012B14D1201CFFF7D1FF0E4E2501A85DFFF7CCFF7519287AFFF7C8FF6888FFF7E7FEE868FFF7E4FEDE
:400B40000748FFF785FD0134E4B2082CE1D9002070BDC0465C28000070280000300200206C28000038B500F01FFF041E082C12D0082804D8002808D0012809D017E01B2825
:400B80003BD080235B00984211D10120404239E00320404236E01C4B19684A1E1A6000220A701B681A70FFF78BFD00202AE0231C0D3B58425841221C0A3A53425341034333
:400BC00007D0114B002219680A70104A1A60012018E0E5B20E48291CFFF788FE00280FD0094B1A68511C196015701B6800221A70201C00F075FE002004E00220404201E06B
:400C00000120404238BDC0466C040020A00100206027000010B5041C0022244B1A6006E099000020224A88500133204A13601F4B1B68092BF4DD00221C4B1A6030E0013420
:400C40002378202BFBD0092BF9D0002B2CD00D2B2AD0222B02D10134012000E00020511C124B19609200124BD450002809D0201C2221FFF73BFE002816D0441C00230370EE
:400C80000EE0201C2021FFF731FE002805D1201C0921FFF72BFE002806D0441C00230370024B1A68092ACBDD10BDC046700300200802002038B5FFF7ADFF002412E0E1006D
:400CC0000D4BC9180D4B18680422FFF7FFFD002806D1E500084B5D196B689847041C04E00134E4B20A2CEAD900240548FFF7B0FCFFF74AFC201C38BD7C040020080200205A
:400D00009028000008B5FFF72DFFC0B2012803D1024B1868FFF7CEFF08BDC0466C04002038B5002312E0DA000A4DAA185268002A0AD10D1C011CDC00064BE418201C04322D
:400D4000FFF7BAFD656003E00133DBB2092BEAD938BDC0467C04002008B508480849FFF7DFFF08480849FFF7DBFF08480849FFF7D7FF08480849FFF7D3FF08BD9C280000C9
:400D8000F5070000A4280000AD060000AC28000085090000B4280000010B0000F0B5474680B496B0804600230CE05A00002011AC105302AC10534C4D0CAC155307AC105373
:400DC0000133DBB20E1C8B42EFDD00F0B9FC00273AE000F015FD00F0CBFC022000F0CEFC00252CE0281C00F0EFFC011C731E9C4205D101F065F9630011AAD05215E0281C7A
:400E000000F008FD021C630011A9585207A9CB5E984202DD630007A9585263000CA9CB5E9A4202DA63000CAA9852640002ABE25A11ABE35AD31802AAA3520135EDB22C1C9E
:400E4000AE42CFDC0137FFB2434601934745C0DB00F086FC002735E0731E9D4213DA6C0002ABE35A07AAA05A1B1A0CAAA05A181A80B202ABE052019B991E00B201F04EFB37
:400E800002ABE05207E06C0002AB185F019901F045FB02ABE0526A0002ABD35A134953521BB2002B03DA131C0021104A99526D00002302AAAB520C490CAAA95207AAAB5296
:400EC0000137FFB23D1CBE42C6DC094A80231B0111680B431360074A13690133136116B004BC9046F0BDC046980800007C03002074040020FC00002008B508200221FFF74D
:400F00004DFF08BD00220DE093009918890007484118002048729B189B000549CB1858720132D2B2032AEFD97047C046F403002038010020F0B5002432E0261CA5002D1918
:400F4000AD00194F7D196D7A002D27D1A400A419A400E051002903D1211C7918CB6005E0B3009B199B00104CE3181972012A06D1B3009B199B000C4AD318586006E0B3002F
:400F80009B199B00084AD31800225A60B3009E19B600054B9E190123737203E00134E4B2032CCAD9F0BDC046F4030020F0B5002437E0261CA5002D19AD001B4F7D196D7AAE
:400FC000002D2CD1A400A419A400E051002905D1211C7918CB6000230B7208E0B3009B199B00114CE3181C1C19720023E360012A06D1B3009B199B000B4AD318586006E0AC
:40100000B3009B199B00084AD31800225A60B3009E19B600044B9E190123737203E00134E4B2042CC5D9F0BD3801002008B5002000F0D0FC642000210022024BFFF7B6FF8C
:4010400008BDC046D504000008B5012001F0FAF8322000210022024BFFF7A8FF08BDC046E104000038B5051C00240AE0201C00F0A3FE002804D1201C291C00F095FE02E010
:401080000134042CF2D938BD08B5AA2001F00AF9112001F007F908BD08B5AA2001F002F9122001F0FFF808BD08B5AA2001F0FAF8102001F0F7F808BD10B5041CAA2001F078
:4010C000F1F8102001F0EEF8AA2001F0EBF8252001F0E8F8201C01F055F90D2001F0E2F810BDC046F8B5051C0C1C171C1E1CAA2001F0D8F8202001F0D5F8281C01F0D2F81B
:40110000201C01F0CFF8AA2001F0CCF8252001F0C9F8124801F036F90D2001F0C3F8AA2001F0C0F8202001F0BDF8281C01F0BAF8201C01F0B7F8AA2001F0B4F8252001F039
:40114000B1F8381C01F01EF9301CFFF787FB01F019F90D2001F0A6F8F8BDC046BC28000008B5044B1B7801200021034AFFF7BAFF08BDC0469C010020C828000008B5012015
:401180000821024A0023FFF7ADFF08BDD028000008B5084B02229B5E00200021064AFFF7A1FF064B00229B5E00200821044AFFF799FF08BD7C030020D8280000FC000020D3
:4011C000E028000070B5061C0D1C141CAA2001F069F8202001F066F8301C01F063F8281C01F060F8AA2001F05DF8252001F05AF8201C01F0C7F80D2001F054F870BDC04656
:4012000008B501200821024AFFF7DCFF08BDC046BC28000070B500230EE01C01084EA45D002C07D11D017319588059601A720123AB5503E00133DBB2092BEED970BDC04670
:401240003002002070B5FFF75DFE00F09DFD5A4800F03AFD5948FFF705FF5948FFF702FF00F010FB00F012FB00F01CFB554800F0B9FFFFF775F900F0F5FF00F0F7FF01F0BD
:4012800001F8AA2001F00EF8012001F00BF84E4800F0D8FE00F088FE00F056FE012000F05BFE00F09DFE494800F0FCFE484800F05FFF012000F0AEFF012000F0B7FF62B65E
:4012C000FFF74AFD0520092101220023FFF732FE0A200C2101220023FFF72CFE01F05EF83C4B1870FFF7D8FEFA20800000F002FCFFF7CAFE3848FFF7DFFE3848FFF7A8F967
:401300003748FFF7A5F9FFF73FF9FA20C00000F0F1FBFFF7C9FE042032490022FFF77AFF042031490122FFF775FF0C202F490122FFF770FF0A202E490122FFF76BFF092025
:401340002C490122FFF766FF0B202B490122FFF761FF072029490122FFF75CFF082028490122FFF757FF002420E02301254AD3185A8801239340244A12681A4214D0260183
:40138000204B9E1973689847F3680133F360337A012B09D125011B4B5D196A8801239340194A1168994311600134E4B2092CDCD900F008FDD7E7C04680BB000009040000F2
:4013C00031050000350300000905000059030000ED040000D8040020E4280000F828000014290000F90E00002D100000011200006111000049100000911100007D1100006D
:40140000050D00003002002074040020FEE7C04670B50F4E0F4D13E029686B68AC68002202E001C901C30432A242FAD1E868002202E0002102C304328242FAD11035013E82
:40144000002EE9D101F05CF9FFF7FCFEFEE7C04601000000C42A000008B50F4A136801218B43136000230AE0032B03D89A000B49505800E00A4899000A4A885001332F2B4F
:40148000F2D9FEF755FE0022074B1A60024A116801230B43136008BD00001040000000000D14000000000020C0000020F0B50025002711E0BB00C658F3B2FF22964308E009
:4014C0006A008A181478A419527822700135013BDBB2002BF4D10137092FEBD9F0BDC04608B50A1C002101F031F908BD064B1B68002803D080221206134301E05B005B0803
:40150000014A13607047C04680033A4008B50323094A1360094A136080221206084B1A60084B094A1360094A13600022084B1A600120FFF7DBFF08BD300030403000314078
:4015400000003A400400030000033A4040033A40000E3F4010B51020032100F0A5FA1020504900F08FFA01224F4B1A604F4B1B68002B01DA4E4900E04E494F4A13680B436F
:4015800013604E4A4E4B1A604E4A4F4B1A6000234E4A13604E4A4F490A604F490A604F4A116880204002014311604D490A6802430A604C4A13604C4A136011224B4B1A60E2
:4015C0004B490A684B4B1340012213430B60002264E0494993005858DC239B0103408918097A0B43002A1CD19100444CA44661440B60C30707D53B49086880235B029340EE
:401600001B0C03430B6093003B495B589B0721D53549086880235B0293401B0C03430B6018E08021C9050B4335490B60930032495B58DB0704D52D490868202303430B60E3
:4016400093002D495B589B0704D528490868402303430B609300284959588B0502D58020400001E080204001CB0504D45300002424495C5203E05300002422495C52224B66
:4016800043438021C9008C466344D917490DCB18DB121BB290001D4943500132012A98D910BDC0467118000020003A4080033A40402010134020001300003A40BC000A80DD
:4016C00004003A400000FF0718003A401C003A400200020010003A4014003A4000033A4040033A4028023A4038023A4018023A4030003A40FFFFFFDF4C2A000080003A4006
:4017000080023A40DC04002010270000E004002008B5094B1B68002B0CDB084B1B68002BFBDB054A1368802109060B4313600A2000F0ACFA08BDC04600003A4008023A4031
:4017400008B5064B1B78002B04D1FFF703FF0122024B1A70FFF7DCFF08BDC04614010020024A13685B005B081360704700003A400122014B1A60704724003A40011C8307F7
:401780000CD0104B1B680120184001D18B07F8D4002804D001220B4B1A6000E000200C230B420DD0074B1A6810231A401043034001D10A07F6D4002B02D01022014B1A60E5
:4017C0007047C04610023A4010B5041E012C02D9002000F045F9002C07D1A400064B9C46644420680004000C03E0044B18680004000C00B210BDC04680013A4090023A40FA
:40180000034A1368802109060B4313607047C04680023A4038B5041C0D1C012802D9002000F01EF963000F4A995A691A09B20E48021C4A43002906DDA3000C495B58D80FC9
:40184000C018431006E0A30008495B58D80FC3185B105B42D018A400044BE15800F05EFE00B238BDDC04002010270000E0040020014B1A681A60704710023A4008B500F06C
:4018800089F808BD08B500F039F808BD08B5044A1368802109060B431360FFF7EFFF08BD0000244008B5064B1B78002B04D1FFF7E9FF0122024B1A70FFF7E8FF08BDC0461A
:4018C00015010020014B18687047C04640032440024B1B681F2018407047C04608032440044B1B681F221340082BF9D0024B18607047C046080224404002244010B5134AD5
:40190000134B1A600023134A13600121124A1160124A13480260072412480460124803601248016012490A60124A1360042212490A6012490B6012490B6012490B60124947
:401940000B6012490A60124A136010BD0B0000020000244040002440480024400700008000032440040324401003244044002440000224400402244050002440880E2440E4
:40198000C80E2440480F2440080F2440C80F2440880F244003490B68F0229343603A13430B6070470004024008B5FFF791FF002802D0FFF787FF00E00020054B1A68D823FC
:4019C0009B001A4203D01A1C014B1A60002008BDC00F244004490A68EF231A400001DF3B184010430860704700040440000000000230800803D00138FDD1C046C046C0460B
:401A00007047EFF3108072B6704780F310887047024A1168024B0B401360704700002240FFFFFFBF034B18688023DB05184000D001207047000022401F2318401E3B8340CE
:401A4000181C014B1860704700E100E01F2318401E3B8340181C014B1860704780E200E001BE704738B5041C0D1C0F2802D90020FFF7F6FFA40080239B059C46644420688D
:401A8000256038BD38B5041C0D1C1F2802D90020FFF7E6FFA400034B9C4664442068256038BDC0464000002070B5041C0E1E032E02D90020FFF7D4FF1F2C02D90020FFF7D3
:401AC000CFFF03252540ED000635FFF79AFFA408A400074B9C46644423680322AA409343AE40351C1D432560FFF78FFF70BDC04600E400E010B5041C06E0084B1868FFF705
:401B000077FF074B9C46644480231B029C42F4D8024B58686043FFF76BFF10BDCC0000200080FFFF30B583B000F084F9002856D0FFF767FF041C00230AE02A4A11683F22F8
:401B40000A402949C95C8A4201D1033303E001332D2BF2D90323254A1268D20606D1234802681F218A4313390A430260204A1168204A1140204A5A438020C0018446624465
:401B8000D20B013A5205520D0A43A02149031143192B02D819490A430BE0194A9A1812781148C3189B7DD218FF2A00D9FF2292050A430F4B1A60134D2B680193302000F07A
:401BC000F3FB114A13688021C9050B4313601420FFF790FF019B2B60201CFFF716FF03B030BDC0462CFF0B40582A000034FF0B400800224000F800C040420F000000D43FE8
:401C0000CDF1FF0F300010400000224030B587B0041CFFF7F6FE051CFFF704FF002803D0FFF7F6FE012100E00021104B1B6800930F4B1B680193033C0E4B1B5D02930E4BCE
:401C40001B68039304AA0D4B04936B4605930C4B1A600C480C4A10601B68012901D1FFF761FF281CFFF7D1FE07B030BD08010B4000010B40582A000030001040B6EA0000B6
:401C800008001040170000800400104008B5034B1B7A5843FFF7ACFE08BDC046CC000020024A116802230B431360704710E000E008B5FFF7F5FF034A116801230B431360CB
:401CC00008BDC04610E000E00002000A014B18607047C04614E000E0012805D1054A116804230B43136004E0024A136804218B431360704710E000E0024B1868C003C00F42
:401D00007047C04610E000E010B5FFF7F5FF01280BD107E0A300054A9B58002B00D09847013400E00024042CF4D910BD180100200022014B1A60704718E000E008B5002329
:401D400004E0990000200D4A88500133042BF8D90F200B49FFF786FE0120FFF7BDFF094BD868FA21890000F049FBFFF7ADFFFFF7DFFF0F20FFF760FE08BDC046180100202A
:401D8000091D0000CC00002008B5064B5B69002B04D1FFF7D3FF0122024B5A61FFF788FF08BDC04618010020024A8300985899507047C046180100208000014BC058704792
:401DC0001801002008B5FFF71CFE044A136804218B43136030BFFFF718FE08BD10ED00E0034B1868C0231B02184000D00120704700010B4010B50D4B1A6801218A431A60EF
:401E00001A68022082431A60094A10683024A043203C204310601068093CA043014311601A68802109060A431A6010BD00002240000F2240034B1B68002B01DA012000E0C8
:401E4000002070470000224008B5FFF7DAFD044A1368C02109020B431360FFF7D6FD08BD00010B4010B5FFF7CCFD08490A68084B1A408024E40122430A600A68134080229C
:401E8000120213430B60FFF7C0FD10BD00010B40FF3FFFFF10B5041E022C02D90020FFF7DFFD044B1868E4000134E040041C0120204010BD10020B4010B5041CFFF790FF26
:401EC000002818D10C4A1368A3431360E30704D50020FFF7DFFF0028FAD1E30504D50120FFF7D8FF0028FAD1E30304D50220FFF7D1FF0028FAD110BD10020B4070B5061C50
:401F0000FFF77FFD041CFFF76BFF002803D0FFF7A9FF012500E000250848331C0340084A106808490840184310601368012D01D1FFF78AFF201CFFF768FD70BD0404040011
:401F400010020B40FBFBFBFF024A117880230B431370704772000F40014B18707047C04683000F40014B1878C0B2704763000F40014B18807047C04644100F40014B188809
:401F800080B2704784100F40014B18807047C04604100F4008B501E0FFF7F0FFFFF7E2FF0307F9D408BDC04610B50B4C201CFFF7DFFF201CFFF7E8FFFFF723FD074A117820
:401FC00010230B431370FFF720FDFFF7E3FF0020FFF7C2FF10BDC0460180000093000F4008B5064B1B78002B04D1FFF7DDFF0122024B1A70FFF7A8FF08BDC04630010020BF
:40200000014BD8657047C0460000002010B5041CFFF7F7FC044A13689B009B08A4071C431460FFF7F2FC10BD04E400E08022014B1A60704700E100E08022014B1A6070476F
:4020400080E100E010B5041CFFF7F6FF201CFFF7D7FF0320FFF7DAFFFFF7E8FF10BDC046014B18647047C0460000002010B5041CFFF7C7FC044A1368C0218B43A4011C43E6
:402080001460FFF7C2FC10BD00E400E00122014B1A60704700E100E00122014B1A60704780E100E010B5041CFFF7F6FF201CFFF7D7FF0320FFF7DAFFFFF7E8FF10BDC046AB
:4020C00010B5164B1A8812B2154B19880CB2604392028418134B9C420BDDC823DB031B1BD817000FC0180011C000552100F016FA0AE0A0239B03E318D817000FC018001155
:40210000C000372100F00AFA23188022120294466344D817000CC018001410BD66F1FF0F64F1FF0FFFFF0E00014B58647047C0460000002010B5041CFFF763FC044A1168B3
:40214000044B0B40A4031C431460FFF75EFC10BD00E400E0FF3FFFFF0222014B1A60704700E100E00222014B1A60704780E100E010B5041CFFF7F6FF201CFFF7D5FF0320F1
:40218000FFF7D8FFFFF7E8FF10BDC0460222014B1A60704780E200E0014B18667047C0460000002010B5041CFFF72BFC044A1368C0218B43A4011C431460FFF726FC10BD41
:4021C00008E400E080225200014B1A607047C04600E100E080225200014B1A607047C04680E100E010B5041CFFF7F4FF201CFFF7D3FF0320FFF7D6FFFFF7E4FF10BDC046B7
:40220000034A10680223184010604008C0B270471007044004490A68F7231A40C000EF3B18401043086070470005044004490A68BF231A4080017F3B1840104308607047F0
:402240000004044004490A68EF231A400001DF3B18401043086070470005044008B500F07FF808BD08B500F02BF808BD08B5044A1368802109060B431360FFF7EFFF08BD9F
:402280000000274008B5064B1B78002B04D1FFF7E9FF0122024B1A70FFF7E8FF08BDC04632010020044B1B681F221340082BF9D0024B18607047C046080227404002274045
:4022C000144A154B1A600023144A1360012214490A600721134801601348016013490B6013490A601349144A1160144A13600421134A1160134A1360134A1360134A13603C
:40230000134A1360134A1360134A13601268134B1A8070470B00000200002740400027404800274000032740040327401003274044002740070000800002274004022740E0
:4023400050002740880E2740C80E2740480F2740080F2740C80F2740880F27403401002005490B68F0229343603A13430B60034B1A88034B1A60704700060240340100208F
:40238000880F274038B5051C002402E0FFF78AFF0134285D0028F9D138BDC046014B1878C0B2704762000F4038B5041CFFF729FB051C102C05D8104A136803218B43136094
:4023C00016E0202C07D80C490B6803229343023A13430B600CE0302C07D807490B6803229343013A13430B6002E00020FFF738FB281CFFF70AFB38BD3000104000224308CF
:402400008B4274D303098B425FD3030A8B4244D3030B8B4228D3030C8B420DD3FF22090212BA030C8B4202D31212090265D0030B8B4219D300E0090AC30B8B4201D3CB03F6
:40244000C01A5241830B8B4201D38B03C01A5241430B8B4201D34B03C01A5241030B8B4201D30B03C01A5241C30A8B4201D3CB02C01A5241830A8B4201D38B02C01A524121
:40248000430A8B4201D34B02C01A5241030A8B4201D30B02C01A5241CDD2C3098B4201D3CB01C01A524183098B4201D38B01C01A524143098B4201D34B01C01A524103092F
:4024C0008B4201D30B01C01A5241C3088B4201D3CB00C01A524183088B4201D38B00C01A524143088B4201D34B00C01A5241411A00D20146524110467047FFE701B5002086
:4025000000F0FCF802BDC0460029F7D003B5FFF775FF0EBC4243891A1847C04603460B437FD4002243088B4274D303098B425FD3030A8B4244D3030B8B4228D3030C8B4270
:402540000DD3FF22090212BA030C8B4202D31212090265D0030B8B4219D300E0090AC30B8B4201D3CB03C01A5241830B8B4201D38B03C01A5241430B8B4201D34B03C01AC9
:402580005241030B8B4201D30B03C01A5241C30A8B4201D3CB02C01A5241830A8B4201D38B02C01A5241430A8B4201D34B02C01A5241030A8B4201D30B02C01A5241CDD21F
:4025C000C3098B4201D3CB01C01A524183098B4201D38B01C01A524143098B4201D34B01C01A524103098B4201D30B01C01A5241C3088B4201D3CB00C01A524183088B4247
:4026000001D38B00C01A524143088B4201D34B00C01A5241411A00D201465241104670475DE0CA0F00D04942031000D34042534000229C4603098B422DD3030A8B4212D30E
:40264000FC22890112BA030A8B420CD3890192118B4208D3890192118B4204D389013AD0921100E08909C3098B4201D3CB01C01A524183098B4201D38B01C01A52414309C6
:402680008B4201D34B01C01A524103098B4201D30B01C01A5241C3088B4201D3CB00C01A524183088B4201D38B00C01A5241D9D243088B4201D34B00C01A5241411A00D256
:4026C0000146634652415B10104601D34042002B00D54942704763465B1000D3404201B5002000F00BF802BD0029F8D003B5FFF715FF0EBC4243891A1847C0467047C04646
:402700000E4B70B500251E1C0D4CE41AA410A54204D0AB00F35898470135F8E700F0C0F9084B00251E1C084CE41AA410A54204D0AB00F35898470135F8E770BDAC2A000003
:40274000AC2A0000AC2A0000B42A0000031C8218934202D019700133FAE7704700000000303132333435363738396162636465666768696A6B6C6D6E6F70717273747576D0
:402780007778797A4142434445464748494A4B4C4D4E4F505152535455565758595A202D2B2A2F25267C5E3A3D28295B5D24222C2E3B3C3E0000000042796520427965002D
:4027C00030313233343536373839414243444546000000000D0A436F6D6D616E647320617265203A200D0A00202020002020202020000000202000000D0A4166746572209C
:402800007461626C65730D0A000000003120736563206166746572207461626C650D0A004974656D20557365642045566E722020536563732020204C6F61642020202043BD
:402840006F756E740D0A00006D736563206166746572207461626C650D0A00000D0A4F6E204576656E74205461626C650D0A00004E722020496E7573652052666C6167201D
:402880004576656E7420436F756E740D0A0000000D0A4E4D4F4E3E200000000068656C7000000000657869740000000061667465720000006F6E657600000000202020207C
:4028C000202020200000000053573A2000000000554255540000000054656D703A000000543A000057656C636F6D652050534F43344D494F000000000A0D57656C636F6DFE
:40290000652050534F43344D494F2042494F530D0A0000004E4D4F4E3E20000000300F40000400400F40000401000F4003300F4006310F4034320F4021330F400A400F406B
:4029400008410F4003420F4007430F4002600F40830DD608DB04DD905F906401670A8790D630D830404549FF4AFF4BFF4F01501852805A085B095D995F0160406240644051
:402980006540668068806A806C806E8083019F01B101B701BF40C014C5ECC720C823C9FFCAFFCBFFCD83CE03CF01D018D401D90BDA0BDB0BDC90DD99DF01E040E240E4401C
:4029C000E540E680E880EA80EC80EE80210222403340390241014340468049054E025101520259055A805C505F0A7680774078017F0581029050930A98019B0AAB0AB450B0
:402A0000CC08CE01D089D210D6FBDE31E240031007401A056B046D408605C030C640DAC0E05083048D4095409F04AB50E280E820EC8001080408C00C15408D40B404B508C1
:402A4000C401E202EA0A020111010000000400000004000002700000030405060708090A0B0C0E0F101112131415161718191B1C1D1E1F2021222325262728292A2B2E2F69
:402A80003031323334350000EEDBC9B9AA9B8E82766B60564D443B332C241D17100A0400F8B5C046F8BC08BC9E467047FD02000059140000F8B5C046F8BC08BC9E46704717
:402AC000D5020000D82A0000C8000020180000000804000000000000000000000000C05D80BB000030000000006CDC0200000000000000000000000000000000000000001F
:402B00000000000000000000000000000000000000000000000000000000000000000000000000000000000000000000000000000000000000000000000000000000000095
:402B40000000000000000000000000000000000000000000000000000000000000000000000000000000000000000000000000000000000000000000000000000000000055
:402B80000000000000000000000000000000000000000000000000000000000000000000000000000000000000000000000000000000000000000000000000000000000015
:402BC00000000000000000000000000000000000000000000000000000000000000000000000000000000000000000000000000000000000000000000000000000000000D5
:020000040001F9
:0200000490303A
:020000002E0BC5
:0200000490402A
:4000000000000000000000000000000000000000000000000000000000000000000000000000000000000000000000000000000000000000000000000000000000000000C0
:400040000000000000000000000000000000000000000000000000000000000000000000000000000000000000000000000000000000000000000000000000000000000080
:0200000490501A
:0C0000000002112B11A1000111393FACCE
:0200000490600A
:0100000001FE
:00000001FF